:100000000C94FC060C9424070C9424070C942407ED
:100010000C9424070C9424070C9424070C942407B4
:100020000C9424070C9424070C9424070C94180BAC
:100030000C9424070C9424070C9424070C94240794
:100040000C94CE0A0C9424070C949C0A0C94760A07
:100050000C9424070C9424070C9424070C94240774
:100060000C9424070C9424070000000025002800AD
:100070002B0000000000240027002A0000000000E0
:1000800023002600290004040404040404040202DA
:100090000202020203030303030301020408102007
:1000A0004080010204081020010204081020000012
:1000B0000008000201000003040700000000000027
:1000C000000048ABB223D41D0B29AD558FB0A3342B
:1000D0009987392674D07458679BC84973AE4D7D93
:1000E00043372D4977B789D28C2ED1B33A5633870F
:1000F00046A92DD9C5EA02ADD76525AB0BD43E7311
:1001000094EC26D1E3C296721323CF4E47C20ACC99
:100110002C3B6D1723298B38B3BDB46C3D6AC5D118
:10012000518A8BC8113B472A31335B9C1C3EA7AADE
:1001300068717AB89C3BA335C9614BAA88D1388BCA
:10014000CDB12286ED0C36C5F01C721AB8E4DD7C08
:10015000252A93BCF0882A5B818D3ECC576D0F36E3
:10016000C6F45873B2B818CB6C43C9E0536C970D02
:10017000254D88A54D26141731D452DD5052A45078
:100180005B79C27193434DB10DD94D8ECD45DF15CD
:10019000373976133F573C945853E542F150632961
:1001A000E54DC54D8BAD44AE983433D612BD465A9D
:1001B0009CD89375876EF1622BA11D7AC90F3D857E
:1001C000779085204C67BD44E2A2B095FD0AB189C5
:1001D000FD74F229C42A8EC7492A15C30346C5B93E
:1001E000ACB2921885A490CE6C1A641E5ABC324EE2
:1001F000134338E62EDB4D48E18466E40C2EE563BC
:10020000DE963CB8D486745B4AE3621E912BC581AE
:100210004BB18536E5283AA832CDB25DE818527563
:10022000D54EA36328950DCB8D89B18DB725373E6B
:10023000B612DD5232C454CA6C43F1527249B375DE
:10024000C7CB2825CDD6151FABE40C5D53BCEC9273
:10025000CB7583F170722E9749C6C3C93D45A6E49C
:100260003427E5569E665AAC584B64876E31621946
:10027000E659AA450D619566A81539C4359CA1D7E4
:10028000C4D85B78C77613424B93293B458855CA3F
:1002900027EC042146091F2DEDF8E82CACC352E1F0
:1002A00063D6F089C88D8FD9DC2FE20C21C672DDB0
:1002B00070D2A4E0CBF5DC4992834BD34B47427319
:1002C000D2DDBA1C172D1A8FB8703C8CA2D4FDC297
:1002D000F130AB12B70BC7C5AE52DCCE6C1BB76AA0
:1002E0003659B5CDBAD6433A55B2F85BB76C57C557
:1002F000C148D6C346620F2B3B4B5B89B29CE634A8
:100300006DDC4E719BA5884EDB22EA5AC5C31DAB3E
:100310007FE4CC0CB34DFE1943C45436C247485653
:100320003389E8EE2E22C2143BB34A724F7593AC68
:100330002ED0EA4256B18742AD0D47C56912ADA72E
:100340006C193732F5F04C6CEC245DCC324E3373C3
:1003500030F72939C72CC1C3D6151FB3A4085BB326
:1003600073AC92327D55F6724A8E88555BC32D2947
:10037000C257C2363F070F3B8EEAC2ECCD755D9681
:10038000089376B12CDB218C412D5619BB280677BA
:1003900059A36DA218C3B08BB28A9369410F2B2C5D
:1003A0006B624BD224A1B3C9A90C4BF20000000030
:1003B00000000000000000205498C63333B65149B5
:1003C0000AADAC264EA1A134AAD224D9F811A97045
:1003D000DCC4188F795A76E35338A16D398D4DE915
:1003E00058B6A90E36D561BEA6DDD8989BE5DDB618
:1003F00063534996753B8A0EA25C3363172AC61471
:100400005D933DE8184B7442D660626CE36D4B8D92
:100410008BAD44AFE40C319656DDA4B39454D2F4C2
:100420005CC932724ED30D39CB2AA95CD6652FA791
:100430009474DB90BD9C5CD27543F170722DE329FE
:10044000C6CD49B955A6651733E656DAA153B45857
:100450005B68876A51425EA519BA450A6D9877E4D0
:1004600034318E1299B1D2C450C265D24E9242E15B
:10047000F2763B490A49B22A430729468D1C8F5C14
:10048000E490A562A24C5342B6888EA8438D215DAC
:10049000BAAC2C2DA5349D96B3CC1CC36D5AC9B2F1
:1004A0008B0FB72ED9CD294643A7640BBF294EF534
:1004B0007464C6512233DD0E7B464D7371D9289C7E
:1004C000C1D88D65A163DAF23095ED8C2AD9CD358E
:1004D0004D32BB40CB335BC5EA02AD366C16BB4B2D
:1004E000D49EB4ED9CC238C2CBB172A37053AD3868
:1004F000C54CDEDC26E52C337B0FDF907DCC122350
:100500007C42F1B14ACCB431D9C72E2922D6642F0E
:10051000B7C40C5BB53DBC12227CC572F17370F799
:10052000A3B02648C65CDB2DA92058379B601CC2AF
:10053000E03D7495958B4274D77146260E3984AB95
:1005400024AB24EB319490C2B2622EB422114ABA89
:10055000ACCCB224681FBAA2326CA37198F60A77A9
:100560000C0000000000000000F044ED3E25CD1C12
:10057000A1B3A75573B78880E9D710D24BD9F4C47B
:1005800022505FA5E9114B71BD94F3A8E4A4456125
:1005900095A7B687518464BED95E4653EC79E67858
:1005A000195D93D7B9E3A575CD5EE3B68FD6946692
:1005B0008DD93E5AD55E396AFB68D57AC4AAED63F7
:1005C0005417116BB697516C84AFD90E66B1A65A09
:1005D000294B9951AA5995EDA265A5E1EF8E875651
:1005E0008544BC275E46536CFEE178985589FBA58F
:1005F000E36426AD916B8E95DD8C298CCB216BABA2
:10060000E316A69800754513A0B54AD40DD79E6D84
:1006100092401DF9B675B89DA08590A6BD769A1634
:100620006D85F8DA1D46F265926B769839B8499770
:10063000D562662FA2E3519C29AC47B4C40AA651E7
:100640009E59EA78985D89E99AEC650D236AEBB2C8
:10065000873D2C5B4CD26ECEF4A83125DB78D323BA
:1006600067861D05CC126180952B5934F28487CBA7
:1006700046C0F2AE0041CEC63CCB6D0F397B8B5AE3
:100680008E7DE412227338EE9172CACC163B47C8B5
:10069000A9335A922C2EA78C1C8DDDB8EC2A6DD96B
:1006A0008EE1B30DD376C78A8E26CC2664373AFA0C
:1006B000B458953BE818CA6D5CCE60A26FB74D2563
:1006C0008B4B3EDD279D2CA1688FD850B2A4AA3554
:1006D0006A42C9529B12CF0D3BC3684A2C2E1C178D
:1006E0002B13ABEA0E1DEC42B43AA352703295DEE6
:1006F0008C48C4CB443433E200986954AF4CB353B4
:100700008C22352BDDF6328AB1F276DBC7ACDED235
:10071000276C2FAB3A0F5BB75DEC6ACD79DD4A737E
:100720008A96B073DBC9AD8ACB56E318AF4AAC28C2
:10073000B3EDECA6C82AD34E73AA928E0ED9CBADD8
:10074000C6D23B942CAFD8489F903DBCE222EDD45A
:1007500076F3B38BD013DBC9CFD65DCEEC08DF7256
:1007600077CFB2E5DC64C374534EB3A30FB34BD958
:10077000C348AE5C66E80E35F936E991BAE414C6B2
:10078000A4C6F212532ED36A33834FD9C23BE2067A
:1007900021458E6C8F92C4102DF3C4B291BD75B7F4
:1007A0000D9A4C2576B22A6C1BC56BF31897D5E4CD
:1007B000683CEBD5F6528AD48857DB4B6D462CCE7D
:1007C0001537AD28B5D8945DB44CBCA22670312243
:1007D000ABCAEE30CB28C6C3CF6C1FABBA083BB355
:1007E0007DEC1222EC42F170728CD04DC5CE4B36AE
:1007F00044B4AC383BF9608BB232EC9CDC6D53F105
:10080000724A0CB70DC5CBAD2E42D71D37B7387322
:100810005BB31DBCA83C7CCD16099B761675C7281A
:10082000EA2A2CDC6D8331B2D4B05127CD2E52325E
:100830004E6D0FA729895CB73D9CA638724376732D
:10084000BB628F0BD9C16D82DD36643BBB30AE5AC3
:100850009754CC2E30FACD563106479D354BC918EA
:100860001C794F2D2773529239B51D804949823B1F
:1008700029C9BE91097EC3147F6639F9196BEFB09F
:100880009D1424A1334D565250946437594E6156ED
:10089000519EA23845DD9A6B98EC14CF98616E9604
:1008A000433462A766C431C9F41D5A9986BDC3B5E5
:1008B000EB641A044CDBF64CE93139426DA1A0C758
:1008C00051CFB0888011D758D24778B55B3452B336
:1008D000A232AAA8694958D5A9ADA11529516F8E90
:1008E00097D69478AED93E5AD59AB56AFB68D55852
:1008F000E6989DA3556799E3728ED6ACA68F2B29F7
:100900005AD3925E298738C3A679986D4475DB1E49
:100910006A8E9C985F59865A296AF0ED1A1B65A861
:10092000D1956B4C94A5E5E0A655519A99BD8A8E58
:100930005B71A6B2E6B1123B98567A7AA9EB617563
:100940002D66EBB287332CAB4FC82ECEB068D929B9
:100950005B05D39278846DB38D1C196E4EC43E72C4
:10096000B89BCA46C0B26E20B2E622D4CD71539273
:10097000B3C8A538472E3E2297E31C29C7CA187171
:1009800072849C2B6324C9E173CAC8D5388DCB3ED1
:10099000C356EC2A362937ADB05DE8E4C3FC59CE26
:1009A000A0A32FB753398389A1DD36942C36F9746F
:1009B000BF54BC846C3C635DC992ABD4CC09254761
:1009C0006D4A3C371C0FA30AF5DC725CAC42B532B1
:1009D000A754B213D3EAACD0C22D4C2C23232360EE
:1009E0005957558F949561768AD1944464245E66F4
:1009F000D55A316EFBD8D559FA84EDE5546761EBD1
:100A00008E8B5BACB94CD96E6ED192761A25785527
:100A100051F9B86CE354C19E1596875B955476C81E
:100A20005E5E3596D1216779D579DA9AECE1171FA8
:100A3000616BB28B9F5CB8ADCB5641E06E16653BE7
:100A400059C9BBCAA5EC61241FAA5BB2979A5C9BEB
:100A500074CB5E72F2ED9263654929876B659426CB
:100A6000A52C91E56183148285AFC90E52081671D9
:100A700062D928419BE9A69D2247EB116FB6879C5E
:100A8000B579BE395E4A551A7EEE68A8459ADBA64E
:100A9000E2A265E6E1B3418691B547AC2B396675B4
:100AA000EE7E6EFBD8C547E885E2E1E418AE938A96
:100AB0009C9BB42B6BC5694E4E6E3AA56439258656
:100AC000DBA6E2E5161F61EB8E9B5BACB99DDA11EC
:100AD0004191EAD2610BB94385BAB913044E13119F
:100AE0006C768291A54694BB1956951279667B382F
:100AF0005DB1C799EDE174C51EE7B693D304BB6D34
:100B0000580E56E19C756EAB585DA0F79BA5620E22
:100B10008ED26796923509E99C4A4EF6A424F34A90
:100B200036B88390DD3BA1E0172CF527525290B9DF
:100B3000D60E594E6156DA996427C54D6958AAE513
:100B4000928C54A1E1B6533C63A5562675C00C5D4A
:100B5000EA1AAE432B9AA27BD8769D48FC47AD217A
:100B6000C246AC1CADC4481FB17D8C1223BDC5CE9E
:100B7000314B88B0113BCDCACE4387EC38A74A73BE
:100B80006AB123DAEE3BB59525B1BAEA2C1392E8A7
:100B9000EAE5DDD5658AAEAF0BB35492C42C5DBDDA
:100BA000DAF610B3F6B01E5B434C265DB363373103
:100BB000EA0EB10ED324EFC7D92772516CD8149B1B
:100BC000C84DB3B14D6B4335C38574EB8DD2CCE0CA
:100BD00035622A6E72A3618BCDD0CE373AB22E45E4
:100BE000BB40EAAADAA4AA42692BB354293C4C853B
:100BF000A9BDAB220915E68ECA8A1CE4A02DA2432A
:100C0000CA1293B1AC0DC74BAC46A3CE9C1EB169C2
:100C10008D1AB373E466246A4DF6519BD6A875DB32
:100C2000C7685A23D71D0FB36A753F771CDC64D59C
:100C30007D437672A3D3F075C5CE4B56434F6D0BF3
:100C4000DF4B338F96EDFCA4347C5271F1B3D08E20
:100C500053D9252842BA4E6CA7B008EE3E951DA286
:100C6000CAA96785B68B2BC79A113A2A1E12225B36
:100C7000E9C0034D8C492AC7AB0C3164CD9C88BBBD
:100C8000C41832ACD3EE1193AF946A394B8EA94C91
:100C9000A6650F259612999633B4584B645B713351
:100CA0006269A56DBACD0AAD44AE912627B410B9DC
:100CB00042ECDC505D684B91F173385115D9CA2B69
:100CC000E133331CABA3A68F4A4F64ECEA3F323DBD
:100CD000B1B14B7A2BCB44CE73B1547D6427CF97FF
:100CE00032EE955C7C9FDAA8CE4A0A422EE53A3174
:100CF000210A234476A8B8D8F76099A16A125F93B5
:100D0000B48A8E4ABC1A6575C724AEA2CC45A53CF0
:100D1000E0946ADDCD2D4E527D6AA75CB94D0B7E05
:100D20008262AD0C2DC6368EB5B28C94CAA4C6CAEA
:100D3000305356B789A8C1CA45D4DAAB243B7AF1FF
:100D400098B0939C42DD2CCB9603960E666E0FE90D
:100D5000B7021900EDE34DB1426E2356C962D7893F
:100D60008AD8395ABE5B6EE2D4C8752E7B00531107
:100D70002F7128B23993BCA4263966D5F691871213
:100D8000AF55D947E95ABC46651F6D18315F93BD11
:100D90008CAED574CD76B39A129355C5CE56C63D5A
:100DA000CADC1887790F2B69245C94322C352171A9
:100DB00041EEB050572808D823329D80B3AA33772C
:100DC000B338C54F4EC3CFE5942039779D6492C2A6
:100DD00090C3B58B51884349C72DC62609C358A770
:100DE000E18834A424A990CB926C56308D0ECA3A77
:100DF000DBA10EDB0F00A40F11241FBECFEFD8E044
:100E0000DEBFCDBF13E0A0E0B1E0E8E8F0E202C051
:100E100005900D92AE3DB107D9F724E0AEEDB3E0F9
:100E200001C01D92AE3AB207E1F716E0CCEFD6E072
:100E300004C02197FE010E942D10CB3FD107C9F7B6
:100E40000E94940D0C9442100C94000060910D04CB
:100E500070910E04FB012491229530E0A901559573
:100E60004795559547954373220F331F220F331F24
:100E70002C7C422B50E09A01359527952575440F1F
:100E8000551F4A7A422B242F30E0322F222790918F
:100E90000F04A82FB0E0AD01490F511D4930510595
:100EA000D4F03196E491E295F0E0AF015595479585
:100EB000559547954373EE0FFF1FEE0FFF1FEC7C18
:100EC0004E2B50E0FA01F595E795E575440F551F57
:100ED0004A7A4E2B242B092E02C0220F331F0A946C
:100EE000E2F740E150E04A1B5B0B02C036952795C4
:100EF0004A95E2F7980F983020F490930F04822FD0
:100F00000895985090930F046F5F7F4F70930E0475
:100F100060930D04F4CFAF92BF92CF92DF92EF9225
:100F2000FF920F931F93CF93DF936C017B018B0193
:100F3000040F151FEB015E01AE18BF08C017D107E3
:100F400059F06991D601ED91FC910190F081E02D6D
:100F5000C6010995892B79F7C501DF91CF911F91C2
:100F60000F91FF90EF90DF90CF90BF90AF900895DA
:100F7000FC01538D448D252F30E0842F90E0821B9F
:100F8000930B541710F0CF96089501970895FC0124
:100F9000918D828D981761F0A28DAE0FBF2FB11D7C
:100FA0005D968C91928D9F5F9F73928F90E00895D4
:100FB0008FEF9FEF0895FC01918D828D981731F08E
:100FC000828DE80FF11D858D90E008958FEF9FEFE2
:100FD0000895FC01918D228D892F90E0805C9F4FB8
:100FE000821B91098F739927089581E194E00E94F3
:100FF000E90721E0892B09F420E0822F089580E0A1
:1010000090E0892B29F00E94F50781110C940000D3
:101010000895FC01A48DA80FB92FB11DA35ABF4F8D
:101020002C91848D90E001968F739927848FA689E7
:10103000B7892C93A089B1898C91837080648C933B
:10104000938D848D981306C00288F389E02D8081EA
:101050008F7D80830895EF92FF920F931F93CF931C
:10106000DF93EC0181E0888F9B8D8C8D98131AC0E3
:10107000E889F989808185FF15C09FB7F894EE89CA
:10108000FF896083E889F989808183708064808327
:101090009FBF81E090E0DF91CF911F910F91FF9072
:1010A000EF900895F62E0B8D10E00F5F1F4F0F731A
:1010B0001127E02E8C8D8E110CC00FB607FCFACFD5
:1010C000E889F989808185FFF5CFCE010E94090862
:1010D000F1CFEB8DEC0FFD2FF11DE35AFF4FF082A6
:1010E0009FB7F8940B8FEA89FB8980818062CFCF0C
:1010F000CF93DF93EC01888D8823B9F0AA89BB894F
:10110000E889F9898C9185FD03C0808186FD0DC039
:101110000FB607FCF7CF8C9185FFF2CF808185FF5A
:10112000EDCFCE010E940908E9CFDF91CF9108955C
:1011300090E0FC01E255FF4F2491FC01E656FF4F81
:101140003491FC01EA57FF4FE491EE23C1F12223D1
:1011500039F02330E9F090F4213001F1223011F11F
:10116000F0E0EE0FFF1FE458FF4FA591B491EC9112
:10117000E32381E090E029F580E008952730A9F08D
:101180002830C9F0243061F7809180008F7D03C042
:10119000809180008F7780938000E2CF84B58F7735
:1011A00084BDDECF84B58F7DFBCF8091B0008F777B
:1011B0008093B000D5CF8091B0008F7DF9CF80E0D3
:1011C00090E00895CF93DF9390E0FC01E656FF4F47
:1011D00024918A579F4FFC0184918823D1F090E09D
:1011E000880F991FFC01EE58FF4FA591B491FC01A7
:1011F000E859FF4FC591D491623071F49FB7F894CC
:101200003C91822F809583238C93E8812E2B288319
:101210009FBFDF91CF9108958FB7F894EC912E2B5B
:101220002C938FBFF6CF3FB7F8948091F90390913C
:10123000FA03A091FB03B091FC0326B5A89B05C05F
:101240002F3F19F00196A11DB11D3FBFBA2FA92F45
:10125000982F8827BC01CD01620F711D811D911D42
:1012600042E0660F771F881F991F4A95D1F70895AE
:101270008F929F92AF92BF92CF92DF92EF92FF92A6
:101280004B015C010E9413096B017C010E94130950
:101290006C197D098E099F09683E7340810591058F
:1012A000A8F321E0821A9108A108B10888EEC80EBF
:1012B00083E0D81EE11CF11C81149104A104B10447
:1012C00029F7FF90EF90DF90CF90BF90AF909F9065
:1012D0008F9008951F93CF93DF93EC0180911004BA
:1012E000811120C061E083E00E94E20883E28093E4
:1012F000B00081E08093B1001092700010928000E5
:1013000099E090938100109285001092840020ED66
:1013100037E0309389002093880092E090936F002B
:1013200080931004D0930E04C0930D0410920F0408
:1013300084E00E942607C82F811110C010920C046F
:1013400010920B0469E170E080E090E00E9438099F
:10135000CF3071F7DF91CF911F9108958F30E9F46D
:1013600010920C0410920B0410920A0410920904BB
:1013700010920804109207041092060410920504BB
:1013800010920404109203041092020410920104BB
:10139000109200041092FF03D5CFE82FF0E0EA5935
:1013A000FD4F808190E090930C0480930B0481E0CA
:1013B0000E942607182F86E00E942607E82FF0E0FB
:1013C000EA5DFD4FD081D093FE031111BBCF85E0C4
:1013D0000E942607E82FF0E0EE0FFF1FEA51FE4FB4
:1013E0008081918190930A048093090485E00E9492
:1013F0002607E82FF0E0EE0FFF1FEA55FE4F808131
:101400009181909308048093070484E00E9426074A
:10141000E82FF0E0EA56FE4F80818093060484E0D6
:101420000E942607E82FF0E0EA57FE4F8081809364
:101430000504DD2309F486CF84E00E942607E82F07
:10144000F0E0EA58FE4F80818093040484E00E941B
:101450002607E82FF0E0EA59FE4F808180930304CD
:1014600084E00E942607E82FF0E0EA5AFE4F8081D0
:101470008093020483E00E942607E82FF0E0E25BFD
:10148000FE4F80818093010483E00E942607E82FAD
:10149000F0E0EA5BFE4F80818093000483E00E94CD
:1014A0002607E82FF0E0E25CFE4F80818093FF0387
:1014B00049CFFC0101900020E9F73197AF01481BAB
:1014C000590BBC0181E194E00C948B07CF93DF931F
:1014D0000E94590AEC0186E792E00E94590A8C0F9B
:1014E0009D1FDF91CF9108950C94590A1F920F927E
:1014F0000FB60F9211242F933F934F935F936F93E7
:101500007F938F939F93AF93BF93EF93FF9381E16B
:1015100094E00E940908FF91EF91BF91AF919F91D4
:101520008F917F916F915F914F913F912F910F908C
:101530000FBE0F901F9018951F920F920FB60F922B
:1015400011242F938F939F93EF93FF93E0912104A6
:10155000F09122048081E0912704F091280482FD1B
:101560001BC0908180912A048F5F8F7320912B0480
:10157000821741F0E0912A04F0E0EF5EFB4F958F77
:1015800080932A04FF91EF919F918F912F910F905B
:101590000FBE0F901F9018958081F4CF1F920F926D
:1015A0000FB60F9211242F933F938F939F93AF9376
:1015B000BF938091F5039091F603A091F703B0914A
:1015C000F8033091F40323E0230F2D3758F50196EB
:1015D000A11DB11D2093F4038093F5039093F603AE
:1015E000A093F703B093F8038091F9039091FA0365
:1015F000A091FB03B091FC030196A11DB11D809346
:10160000F9039093FA03A093FB03B093FC03BF91FB
:10161000AF919F918F913F912F910F900FBE0F909F
:101620001F90189526E8230F0296A11DB11DD2CF59
:101630001F920F920FB60F9211242F923F924F924A
:101640005F926F927F928F929F92AF92BF92CF9252
:10165000DF92EF92FF920F931F932F933F934F933D
:101660005F936F937F938F939F93AF93BF93EF930A
:10167000FF93CF93DF93CDB7DEB7A297DEBFCDBF89
:101680008091F3038093B40078949091FE039923A2
:1016900009F42CC28091F203891708F024C28F5FED
:1016A0008093F203E091F20370E060E0E93288F4A5
:1016B000F0E0ED5FFE4FA08120910B0430910C040F
:1016C0000A2E000CBB0B0E943B10672F782F892F2E
:1016D000992700910004002E000C110B6090EE037E
:1016E0007090EF034091FF032091F0033091F103DC
:1016F0004203C001439F900D1124880F892F881F3A
:10170000990B681B790B069DC001079D900D169DD6
:10171000900D1124880F892F881F990B4B01881A6F
:10172000990A40900104042C000C55084091EC03E8
:101730005091ED035A834983449EC001459E900D0C
:10174000549E900D1124880F892F881F990B140126
:10175000281A390A80910204482F880F550B5C83A0
:101760004B834091EA035091EB035E834D836B8181
:101770007C81649FC001659F900D749F900D112422
:10178000880F892F881F990BA101481B590B588F6F
:101790004F8B80910304482F880F550B58874F8338
:1017A0004091E8035091E9035A8749876F81788512
:1017B000649FC001659F900D749F900D1124880F48
:1017C000892F881F990B4F89588D481B590B5A8FA9
:1017D000498F80910404482F880F550B5C874B87F5
:1017E0004091E6035091E7035E874D876B857C85CA
:1017F000649FC001659F900D749F900D1124880F08
:10180000892F881F990B498D5A8D481B590B5C8F66
:101810004B8F80910504482F880F550B588B4F87AD
:101820004091E4035091E5035A8B498B6F85788989
:10183000649FC001659F900D749F900D1124880FC7
:10184000892F881F990B4B8D5C8D481B590B5E8F20
:101850004D8F80910604482F880F550B5C8B4B8B66
:101860004091E2035091E3035E8B4D8B6B897C8941
:10187000649FC001659F900D749F900D1124880F87
:10188000892F881F990B4D8D5E8D481B590B58A3CE
:101890004F8FC0900704D09008044091E00350910E
:1018A000E1035AA349A39601DA010E9433102FE005
:1018B00095958795779567952A95D1F7AF8CB8A0C0
:1018C000A61AB70AE0900904F0900A04E091DE033A
:1018D000F091DF039701DF010E9433103FE09595FF
:1018E0008795779567953A95D1F7A501461B570BD4
:1018F00041156EEF560714F440E05EEF411572E0BB
:10190000570714F04FEF51E0089DC001099D900D5D
:10191000189D900D1124880F892F881F990B860D13
:10192000971D9093F1038093F003429CC001439C68
:10193000900D529C900D1124880F892F881F990BB0
:1019400029813A81820F931F9093EF038093EE03D6
:101950006B817C812F89388D629FC001639F900DC0
:10196000729F900D1124880F892F881F990B6D810C
:101970007E81860F971F9093ED038093EC032F8158
:101980003885698D7A8D269FC001279F900D369FDF
:10199000900D1124880F892F881F990B29853A856E
:1019A000820F931F9093EB038093EA036B857C85F2
:1019B0002B8D3C8D629FC001639F900D729F900D97
:1019C0001124880F892F881F990B6D857E85860FBE
:1019D000971F9093E9038093E8032F8538896D8DD5
:1019E0007E8D269FC001279F900D369F900D11245C
:1019F000880F892F881F990B29893A89820F931F95
:101A00009093E7038093E6036B897C892F8D38A13F
:101A1000629FC001639F900D729F900D1124880FEB
:101A2000892F881F990B6D897E89860F971F909348
:101A3000E5038093E4039501D6010E9433100FE083
:101A400095958795779567950A95D1F729A13AA13C
:101A5000260F371F3093E3032093E2039701DA0147
:101A60000E9433102FE095958795779567952A9575
:101A7000D1F7E60FF71FF093E103E093E0035093F3
:101A8000DF034093DE03559547955595479540589C
:101A90004093F303A2960FB6F894DEBF0FBECDBFFE
:101AA000DF91CF91FF91EF91BF91AF919F918F9176
:101AB0007F916F915F914F913F912F911F910F9166
:101AC000FF90EF90DF90CF90BF90AF909F908F905E
:101AD0007F906F905F904F903F902F900F900FBE30
:101AE0000F901F9018951092F203DCCD2091000109
:101AF00030910101C90196958795A901417055273B
:101B000020FF02C040E058EB842795279093010105
:101B10008093000160910B0470910C0480FDD9CD7D
:101B2000719561957109D5CDCF93DF93CDB7DEB7B0
:101B3000A1970FB6F894DEBF0FBECDBF789484B5E1
:101B4000826084BD84B5816084BD85B5826085BDB9
:101B500085B5816085BD80916E00816080936E0047
:101B60001092810080918100826080938100809139
:101B700081008160809381008091800081608093EA
:101B800080008091B10084608093B1008091B000AA
:101B900081608093B00080917A00846080937A00A5
:101BA00080917A00826080937A0080917A008160CF
:101BB00080937A0080917A00806880937A001092F6
:101BC000C100E0912104F091220482E08083E09141
:101BD0001D04F0911E041082E0911F04F091200476
:101BE0008FEC808310922904E0912504F091260463
:101BF00086E08083E0912304F09124048081806159
:101C00008083E0912304F0912404808188608083A4
:101C1000E0912304F0912404808180688083E09126
:101C20002304F091240480818F7D808362E084E02E
:101C30000E94E20862E085E00E94E208412C24E074
:101C4000522E612C712C34E6232E01E090E0892E77
:101C500090E0992E8CE9382E84E00E94980810912B
:101C60000201892B31F51F5F109302010093FD03E0
:101C700080910201811124C08AE080930201809149
:101C8000FD03882309F49DC0E0910201E150EA3090
:101C900008F095C0F0E0E15BF14F0C942D10650E5B
:101CA000630F6C0F730F7A0F810F880F8F0F960FD2
:101CB0009D0F85E00E949808892BD1F61150D4CF52
:101CC0008B30E8F200930201DACF95E490937C0028
:101CD00080917A00806480937A0080917A0086FDFA
:101CE000FCCF80917800A0917900BA2FA82F24E62C
:101CF00030E00E943B10A30192010E94D10F6901C4
:101D0000122F33274427552719A25E01E1E2AE0EB8
:101D1000B11CCA01B9012AE030E040E050E00E9465
:101D2000F00F605DF50162935F01211531054105FA
:101D3000510579F7309719F0CF010E94590A86E7CB
:101D400092E00E94590A1D3009F460C008F04BC0AF
:101D50001A3009F461C038F589EA92E0112349F19B
:101D6000812F622D0E942110FC2D839DF00D1124E6
:101D70008F2F6AE00E94211096EF899FC00C1124DA
:101D80008150893008F07EC0E82FF0E0E653F14F33
:101D90000C942D10450F3E0F3B0F380F350F320FAF
:101DA0002F0F2C0F0F0F1B30A1F18AE992E01C308E
:101DB000B9F60E94740A8CE293E00E94660A1092BF
:101DC000FD0368EC70E080E090E00E943809811427
:101DD000910409F441CF0E94F507882309F43ACF12
:101DE0000E94000033CF1F3059F068F0143129F001
:101DF00089E792E01436E9F2B3CF8EE792E0D9CFCB
:101E000085E892E0D6CF8CE892E0D3CF84E992E0E7
:101E1000D0CF8FE992E0CDCF84EA92E0CACF8EEAAC
:101E200092E00E94740ACC2031F288EF92E00E9486
:101E3000740AEFEFEC0DE93008F0BDCFF0E0ED5D96
:101E4000F04F0C942D10600F5D0F5A0F570F540F69
:101E5000510F4E0F4B0F480F86EB92E0E2CF8EEB07
:101E600092E0DFCF86EC92E0DCCF8EEC92E0D9CF2F
:101E700088ED92E0D6CF81EE92E0D3CF89EE92E06A
:101E80000E94740AC110D5CF96CF81EF92E0F8CFAF
:101E90008CEF92E08ECF82E093E08BCF87E093E0EF
:101EA00088CF8DE093E085CF82E193E082CF88E117
:101EB00093E07FCF8FE193E07CCF84E293E079CF12
:101EC00088E293E076CF87E393E00E94660A80E1A0
:101ED0009DE00E946A0973CF81E493E00E94660A44
:101EE00083E79CE0F6CF86E493E00E94660A8EEEDC
:101EF0009BE0EFCF8CE493E00E94660A8DE59BE0C7
:101F0000E8CF81E593E00E94660A87EB98E0E1CF95
:101F10008AE793E00E94660A8AE695E0DACF86EACD
:101F200093E00E94660A8CEA93E0D3CF8BEB93E0B8
:101F30000E94660A8DED91E0CCCF83ED93E00E9484
:101F4000660A82EC90E0C5CFE1E1F4E013821282F0
:101F500088EE93E0A0E0B0E084839583A683B78306
:101F600080E391E09183808385EC90E0958784877E
:101F700084EC90E09787868780EC90E0918B808B53
:101F800081EC90E0938B828B82EC90E0958B848B3C
:101F900086EC90E0978B868B118E128E138E148EAA
:101FA0000895052E97FB1EF400940E94E80F57FD3C
:101FB00007D00E94F00F07FC03D04EF40C94E80FFA
:101FC00050954095309521953F4F4F4F5F4F089565
:101FD00090958095709561957F4F8F4F9F4F089595
:101FE000A1E21A2EAA1BBB1BFD010DC0AA1FBB1F1D
:101FF000EE1FFF1FA217B307E407F50720F0A21B8F
:10200000B30BE40BF50B661F771F881F991F1A94FB
:1020100069F760957095809590959B01AC01BD0125
:10202000CF010895A29FB001B39FC001A39F700D7F
:10203000811D1124911DB29F700D811D1124911DD0
:102040000895991B79E004C0991F961708F0961B14
:10205000881F7A95C9F780950895EE0FFF1F0590A8
:10206000F491E02D09940E941210332312F48A1B7C
:102070009B0B0C943D100E941210B7FF0895821B19
:08208000930B0895F894FFCFC3
:10208800010001002AD432B212251402E1C5025F10
:102098005A050F26FCA5A5D6DDDCFC252B22210F31
:1020A800FFF8EEEDEFF7F6FA00030201000000007A
:1020B8002B088B07B8077808E907C707DB07CDDFC8
:1020C800F10416203B4DC0D4E8FC1025394DC0D88A
:1020D800F0071F374F66B3BFCBD7E3EFFB07131FDC
:1020E8002B37434F5A66C0CBD6E1ECF7030E1924C1
:1020F8002F3A45505B66AEBAC5D1DDE8F4FF0B1741
:10210800222E3945515CAEBCCAD8E6F4010F1D2B0E
:1021180039475563717E929FADBAC8D5E3F0FE0B7F
:10212800192634414F5C00AE80B480BB40C380CBDD
:1021380040D4C0DD80E780F1C0FB00064010401AA3
:102148000024402D0036403EC045C04C0053805806
:10215800C05D40624066C069C06C806FC071C0736A
:1021680080750077807EC0828083C0834084C0846D
:1021780040850086808780888089C08A008C408D51
:10218800008FC090C092009940A180AB40B840C772
:10219800C0D8C0EB000040144027C038C047805466
:1021A800C05E0067406D0010111213141516171841
:1021B800191A1B1C1D1E1F2021222324252627280F
:1021C800292A2B2D2F31333536393B3D3F424547A0
:1021D800494D4F5155575C5F63666A6E73777B80D4
:1021E800858A8F959AA00002030405070A0F142018
:1021F80029395172A1FF0D0A006369656E0076697D
:10220800656E7465007175696E6365006361746FEE
:1022180072636500747265636500646F6365006F5F
:102228006E6365006469657A006365726F006E6F3E
:1022380076656E7461006F6368656E7461007365BE
:1022480074656E746100736573656E7461006369AB
:102258006E6375656E74610063756172656E746135
:1022680000747265696E7461007665696E746920C0
:102278000064696573692000207920006E756576B1
:1022880065006F63686F00736965746500736965DD
:10229800730063696E636F0063756174726F0074B5
:1022A80072657300646F7300756E6F0020706F72D3
:1022B8006369656E746F00506F726369656E746FE1
:1022C80000526F6A6F00566572646500417A756CDA
:1022D800005365206120636F6E65637461646F20CD
:1022E800656C206361726761646F72206465206C3D
:1022F80061206261746572696100736520612064A0
:102308006573636F6E65637461646F20656C2063C9
:1023180061726761646F72206465206C612062611C
:102328007465726961004D6F646F2061686F7272C5
:102338006F20616374697661646F004D6F646F200C
:1023480061686F72726F2064657361637469766126
:0E235800646F004355494441444F2121000069
:00000001FF
