:100000000C9462000C948A000C948A000C948A0070
:100010000C948A000C948A000C948A000C948A0038
:100020000C948A000C948A000C948A000C948A0028
:100030000C948A000C948A000C948A000C948A0018
:100040000C949C030C948A000C946A030C94440353
:100050000C948A000C948A000C948A000C948A00F8
:100060000C948A000C948A000000000024002700F1
:100070002A0000000000250028002B0000000000DE
:1000800023002600290004040404040404040202DA
:100090000202020203030303030301020408102007
:1000A0004080010204081020010204081020000012
:1000B0000008000201000003040700000000000027
:1000C0000000E10411241FBECFEFD8E0DEBFCDBF9A
:1000D00011E0A0E0B1E0EAEDFAE002C005900D9277
:1000E000A839B107D9F722E0A8E9B1E001C01D9213
:1000F000A034B207E1F710E0C2E6D0E004C02197D7
:10010000FE010E946505C136D107C9F70E94E603CA
:100110000C946B050C940000AF92BF92CF92DF92CB
:10012000EF92FF920F931F93CF93DF936C017B01AC
:100130008B01040F151FEB015E01AE18BF08C0173D
:10014000D10759F06991D601ED91FC910190F081B0
:10015000E02DC6010995892B79F7C501DF91CF9173
:100160001F910F91FF90EF90DF90CF90BF90AF90D5
:100170000895FC01538D448D252F30E0842F90E0AD
:10018000821B930B541710F0CF9608950197089592
:10019000FC01918D828D981761F0A28DAE0FBF2F5B
:1001A000B11D5D968C91928D9F5F9F73928F90E0B1
:1001B00008958FEF9FEF0895FC01918D828D981720
:1001C00031F0828DE80FF11D858D90E008958FEF5D
:1001D0009FEF0895FC01918D228D892F90E0805C26
:1001E0009F4F821B91098F739927089583EA91E0AD
:1001F0000E94EA0021E0892B09F420E0822F089573
:1002000080E090E0892B29F00E94F60081110C9487
:1002100000000895FC01A48DA80FB92FB11DA35AA9
:10022000BF4F2C91848D90E001968F739927848F16
:10023000A689B7892C93A089B1898C918370806439
:100240008C93938D848D981306C00288F389E02DDA
:1002500080818F7D80830895EF92FF920F931F938B
:10026000CF93DF93EC0181E0888F9B8D8C8D981369
:100270001AC0E889F989808185FF15C09FB7F89475
:10028000EE89FF896083E889F989808183708064C1
:1002900080839FBF81E090E0DF91CF911F910F910C
:1002A000FF90EF900895F62E0B8D10E00F5F1F4F1B
:1002B0000F731127E02E8C8D8E110CC00FB607FC2A
:1002C000FACFE889F989808185FFF5CFCE010E94B8
:1002D0000A01F1CFEB8DEC0FFD2FF11DE35AFF4F1B
:1002E000F0829FB7F8940B8FEA89FB898081806246
:1002F000CFCFCF93DF93EC01888D8823B9F0AA8903
:10030000BB89E889F9898C9185FD03C0808186FDD0
:100310000DC00FB607FCF7CF8C9185FFF2CF80811F
:1003200085FFEDCFCE010E940A01E9CFDF91CF9189
:100330000895833081F028F4813099F08230A9F05B
:1003400008958730A9F08830C9F08430B1F48091E5
:1003500080008F7D03C0809180008F778093800024
:10036000089584B58F7784BD089584B58F7DFBCFC4
:100370008091B0008F778093B00008958091B00095
:100380008F7DF9CFCF93DF93282F30E0F901E2552D
:10039000FF4F8491F901E656FF4FD491F901EA57D6
:1003A000FF4FC491CC23A1F081110E949901EC2F41
:1003B000F0E0EE0FFF1FE458FF4FA591B491EC91D0
:1003C000ED2381E090E009F480E0DF91CF91089582
:1003D00080E090E0FACF1F93CF93DF93282F30E097
:1003E000F901E255FF4F8491F901E656FF4FD49190
:1003F000F901EA57FF4FC491CC23A9F0162F8111C0
:100400000E949901EC2FF0E0EE0FFF1FEE58FF4F16
:10041000A591B4918FB7F894EC91111108C0D095C3
:10042000DE23DC938FBFDF91CF911F910895DE2BE8
:10043000F8CFCF93DF9390E0FC01E656FF4F249175
:100440008A579F4FFC0184918823D1F090E0880F58
:10045000991FFC01E859FF4FA591B491FC01EE589A
:10046000FF4FC591D491623071F49FB7F8943C91DD
:10047000822F809583238C93E8812E2B28839FBF26
:10048000DF91CF9108958FB7F894EC912E2B2C9398
:100490008FBFF6CF3FB7F89480919F019091A00154
:1004A000A091A101B091A20126B5A89B05C02F3F44
:1004B00019F00196A11DB11D3FBFBA2FA92F982F8A
:1004C0008827BC01CD01620F711D811D911D42E085
:1004D000660F771F881F991F4A95D1F708958F924D
:1004E0009F92AF92BF92CF92DF92EF92FF924B0119
:1004F0005C010E944A026B017C010E944A026C1955
:100500007D098E099F09683E734081059105A8F316
:1005100021E0821A9108A108B10888EEC80E83E094
:10052000D81EE11CF11C81149104A104B10429F727
:10053000FF90EF90DF90CF90BF90AF909F908F9003
:100540000895FC0101900020E9F73197AF01481BA5
:10055000590BBC0183EA91E00C948C00CF93DF939C
:100560000E94A102EC0182E191E00E94A1028C0FA5
:100570009D1FDF91CF910895FF920F931F93CF930B
:10058000DF93F82ED09199010091980110E08CE052
:100590000E94C2010817190751F08CE00E94C201A5
:1005A000019709F04EC085E191E00E94AE028CE017
:1005B0000E94C20121E0009709F420E020939801F5
:1005C000892B09F041C061E08BE00E94EB0180E4DF
:1005D00080937C0080917A00806480937A0080917F
:1005E0007A0086FDFCCF80917800A0917900BA2F27
:1005F000A82F24EF31E00E945E052FEF33E040E0AA
:1006000050E00E940E05C0ECC20F61E089E00E943C
:10061000EB0180919801882341F11092990180911A
:1006200099018D1731F0882361F189E691E00E94EC
:10063000AE028C2F90E0DF91CF911F910F91FF9030
:1006400008958DE391E0B1CF60E08BE00E94EB0173
:10065000FF20D9F260E089E00E94EB0165E070E0E4
:1006600080E090E00E946F02B2CF8AE00E94C20157
:10067000892B21F081E080939901D1CFCF30D0F345
:10068000CCCF8EE791E0D3CF1F920F920FB60F928F
:1006900011242F933F934F935F936F937F938F9387
:1006A0009F93AF93BF93EF93FF9383EA91E00E94F0
:1006B0000A01FF91EF91BF91AF919F918F917F912F
:1006C0006F915F914F913F912F910F900FBE0F90BF
:1006D0001F9018951F920F920FB60F9211242F930F
:1006E0008F939F93EF93FF93E091B301F091B40147
:1006F0008081E091B901F091BA0182FD1BC0908127
:100700008091BC018F5F8F732091BD01821741F0F2
:10071000E091BC01F0E0ED55FE4F958F8093BC0158
:10072000FF91EF919F918F912F910F900FBE0F909E
:100730001F9018958081F4CF1F920F920FB60F92E1
:1007400011242F933F938F939F93AF93BF938091E7
:100750009B0190919C01A0919D01B0919E013091CF
:100760009A0123E0230F2D3758F50196A11DB11DE5
:1007700020939A0180939B0190939C01A0939D01EB
:10078000B0939E0180919F019091A001A091A10141
:10079000B091A2010196A11DB11D80939F0190937C
:1007A000A001A093A101B093A201BF91AF919F912D
:1007B0008F913F912F910F900FBE0F901F90189522
:1007C00026E8230F0296A11DB11DD2CFCF93DF9350
:1007D000CDB7DEB7A1970FB6F894DEBF0FBECDBF81
:1007E000789484B5826084BD84B5816084BD85B50C
:1007F000826085BD85B5816085BD80916E00816018
:1008000080936E00109281008091810082608093BD
:1008100081008091810081608093810080918000BF
:100820008160809380008091B10084608093B100EA
:100830008091B00081608093B00080917A008460E4
:1008400080937A0080917A00826080937A00809110
:100850007A00816080937A0080917A00806880932A
:100860007A001092C100E091B301F091B40182E0EE
:100870008083E091AF01F091B0011082E091B1016D
:10088000F091B2018FEC80831092BB01E091B7012F
:10089000F091B80186E08083E091B501F091B60156
:1008A000808180618083E091B501F091B601808103
:1008B00088608083E091B501F091B6018081806805
:1008C0008083E091B501F091B60180818F7D8083B6
:1008D00062E088E00E94190261E089E00E9419024A
:1008E00061E08BE00E94190261E089E00E94EB0167
:1008F0008AE0882E912CA12CB12C00E010E080E041
:100900000E94BC0288E00E94C201892B91F581E01F
:100910000E94BC026C01990FEE08FF08F7FE3BC075
:100920006DE283EA91E00E942C0122273327A9017E
:100930002C193D094E095F0919A2CE0181967C014F
:10094000CA01B901A50194010E942D05605DF7015E
:1009500062937F01211531054105510589F7E114A5
:10096000F10419F0C7010E94A10286E991E00E94FA
:10097000AE026CE271E080E090E00E946F0201152F
:10098000110509F4BCCF0E94F600882309F4B7CF03
:100990000E940000B4CFA701960119A2CE01819652
:1009A0007C01CA01B901A50194010E942D05605D79
:1009B000F70162937F01211531054105510589F742
:1009C000CECFE3EAF1E01382128288EE93E0A0E05A
:1009D000B0E084839583A683B78384E091E091831C
:1009E000808385EC90E09587848784EC90E09787FE
:1009F000868780EC90E0918B808B81EC90E0938BEC
:100A0000828B82EC90E0958B848B86EC90E0978BC8
:100A1000868B118E128E138E148E0895052E97FBE1
:100A20001EF400940E94250557FD07D00E942D0555
:100A300007FC03D04EF40C94250550954095309555
:100A400021953F4F4F4F5F4F08959095809570953A
:100A500061957F4F8F4F9F4F0895A1E21A2EAA1BD9
:100A6000BB1BFD010DC0AA1FBB1FEE1FFF1FA2175E
:100A7000B307E407F50720F0A21BB30BE40BF50B5B
:100A8000661F771F881F991F1A9469F760957095E4
:100A9000809590959B01AC01BD01CF010895A29F67
:100AA000B001B39FC001A39F700D811D1124911D42
:100AB000B29F700D811D1124911D08950E944F0554
:100AC000B7FF0895821B930B0895EE0FFF1F05904B
:0A0AD000F491E02D0994F894FFCF93
:100ADA00000000002C018C00B9007901EA00C8006E
:100AEA00DC000D0A007365206120636F6E65637414
:100AFA0061646F20756E206361726761646F722032
:100B0A0061206C612062617465726961007365209D
:100B1A006120646573636F6E65637461646F2065D9
:100B2A006C206361726761646F72206465206C6116
:100B3A002062617465726961006D6F646F2061681B
:100B4A006F72726F20616374697661646F006D6F92
:100B5A00646F2061686F72726F2064657361637479
:080B6A00697661646F0025004B
:00000001FF
