:100000000C9462000C948A000C948A000C948A0070
:100010000C948A000C948A000C948A000C948A0038
:100020000C948A000C948A000C948A000C948A0028
:100030000C948A000C948A000C948A000C948A0018
:100040000C9402030C948A000C94D0020C94AA0223
:100050000C948A000C948A000C948A000C948A00F8
:100060000C948A000C948A000000000023002600F3
:10007000290000000008000201000003040700003E
:1000800000000000000000000000250028002B00F8
:1000900000000000240027002A00040404040404D3
:1000A0000404020202020202030303030303010227
:1000B00004081020408001020408102001020408F6
:1000C0001020CB0411241FBECFEFD8E0DEBFCDBF80
:1000D00011E0A0E0B1E0EEEAFAE002C005900D9276
:1000E000A839B107D9F722E0A8E9B1E001C01D9213
:1000F000A234B207E1F710E0C2E6D0E004C02197D5
:10010000FE010E944F05C136D107C9F70E944C037A
:100110000C9455050C94000090E0FC01E255FF4F53
:10012000249186569F4FFC018491882399F090E09A
:10013000880F991FFC01E057FF4FA591B491FC0176
:10014000EA57FF4F859194918FB7F894EC91E22B89
:10015000EC938FBF0895AF92BF92CF92DF92EF9250
:10016000FF920F931F93CF93DF936C017B018B0161
:10017000040F151FEB015E01AE18BF08C017D107B1
:1001800059F06991D601ED91FC910190F081E02D3B
:10019000C6010995892B79F7C501DF91CF911F9190
:1001A0000F91FF90EF90DF90CF90BF90AF900895A8
:1001B000FC01538D448D252F30E0842F90E0821B6D
:1001C000930B541710F0CF96089501970895FC01F2
:1001D000918D828D981761F0A28DAE0FBF2FB11D4A
:1001E0005D968C91928D9F5F9F73928F90E00895A2
:1001F0008FEF9FEF0895FC01918D828D981731F05C
:10020000828DE80FF11D858D90E008958FEF9FEFAF
:100210000895FC01918D228D892F90E0805C9F4F85
:10022000821B91098F739927089585EA91E00E94B6
:10023000090121E0892B09F420E0822F089580E054
:1002400090E0892B29F00E94150181110C94000087
:100250000895FC01A48DA80FB92FB11DA35ABF4F5B
:100260002C91848D90E001968F739927848FA689B5
:10027000B7892C93A089B1898C91837080648C9309
:10028000938D848D981306C00288F389E02D8081B8
:100290008F7D80830895EF92FF920F931F93CF93EA
:1002A000DF93EC0181E0888F9B8D8C8D98131AC0B1
:1002B000E889F989808185FF15C09FB7F894EE8998
:1002C000FF896083E889F9898081837080648083F5
:1002D0009FBF81E090E0DF91CF911F910F91FF9040
:1002E000EF900895F62E0B8D10E00F5F1F4F0F73E8
:1002F0001127E02E8C8D8E110CC00FB607FCFACFA3
:10030000E889F989808185FFF5CFCE010E94290116
:10031000F1CFEB8DEC0FFD2FF11DE35AFF4FF08273
:100320009FB7F8940B8FEA89FB8980818062CFCFD9
:10033000CF93DF93EC01888D8823B9F0AA89BB891C
:10034000E889F9898C9185FD03C0808186FD0DC007
:100350000FB607FCF7CF8C9185FFF2CF808185FF28
:10036000EDCFCE010E942901E9CFDF91CF91089511
:10037000833081F028F4813099F08230A9F008951B
:100380008730A9F08830C9F08430B1F480918000C2
:100390008F7D03C0809180008F77809380000895C7
:1003A00084B58F7784BD089584B58F7DFBCF809110
:1003B000B0008F778093B00008958091B0008F7D5A
:1003C000F9CFCF93DF93282F30E0F901EE58FF4F9C
:1003D0008491F901E255FF4FD491F901E656FF4FA0
:1003E000C491CC23A1F081110E94B801EC2FF0E060
:1003F000EE0FFF1FE859FF4FA591B491EC91ED234B
:1004000081E090E009F480E0DF91CF91089580E0F1
:1004100090E0FACF1F93CF93DF93282F30E0F901BC
:10042000EE58FF4F8491F901E255FF4FD491F90145
:10043000E656FF4FC491CC23A9F0162F81110E94DC
:10044000B801EC2FF0E0EE0FFF1FEA57FF4FA59128
:10045000B4918FB7F894EC91111108C0D095DE23B8
:10046000DC938FBFDF91CF911F910895DE2BF8CFE2
:100470003FB7F89480919D0190919E01A0919F01BA
:10048000B091A00126B5A89B05C02F3F19F0019699
:10049000A11DB11D3FBFBA2FA92F982F8827BC01DE
:1004A000CD01620F711D811D911D42E0660F771F06
:1004B000881F991F4A95D1F708958F929F92AF9206
:1004C000BF92CF92DF92EF92FF924B015C010E94AC
:1004D00038026B017C010E9438026C197D098E097B
:1004E0009F09683E734081059105A8F321E0821AB7
:1004F0009108A108B10888EEC80E83E0D81EE11C5F
:10050000F11C81149104A104B10429F7FF90EF902C
:10051000DF90CF90BF90AF909F908F900895FC0197
:1005200001900020E9F73197AF01481B590BBC013E
:1005300085EA91E00C94AB00CF93DF930E948F0289
:10054000EC0182E191E00E948F028C0F9D1FDF91F0
:10055000CF9108951F920F920FB60F9211242F93EF
:100560003F934F935F936F937F938F939F93AF933B
:10057000BF93EF93FF9385EA91E00E942901FF91D9
:10058000EF91BF91AF919F918F917F916F915F910B
:100590004F913F912F910F900FBE0F901F90189584
:1005A0001F920F920FB60F9211242F938F939F9348
:1005B000EF93FF93E091B501F091B6018081E09156
:1005C000BB01F091BC0182FD1BC090818091BE01F6
:1005D0008F5F8F732091BF01821741F0E091BE01C0
:1005E000F0E0EB55FE4F958F8093BE01FF91EF91A8
:1005F0009F918F912F910F900FBE0F901F90189584
:100600008081F4CF1F920F920FB60F9211242F9377
:100610003F938F939F93AF93BF9380919901909154
:100620009A01A0919B01B0919C013091980123E027
:10063000230F2D3758F50196A11DB11D2093980168
:100640008093990190939A01A0939B01B0939C0190
:1006500080919D0190919E01A0919F01B091A00178
:100660000196A11DB11D80939D0190939E01A093C1
:100670009F01B093A001BF91AF919F918F913F9146
:100680002F910F900FBE0F901F90189526E8230F03
:100690000296A11DB11DD2CFCF93DF93CDB7DEB7A8
:1006A000A1970FB6F894DEBF0FBECDBF789484B586
:1006B000826084BD84B5816084BD85B5826085BD5E
:1006C00085B5816085BD80916E00816080936E00EC
:1006D00010928100809181008260809381008091DE
:1006E000810081608093810080918000816080938F
:1006F00080008091B10084608093B1008091B0004F
:1007000081608093B00080917A00846080937A0049
:1007100080917A00826080937A0080917A00816073
:1007200080937A0080917A00806880937A0010929A
:10073000C100E091B501F091B60182E08083E091C3
:10074000B101F091B2011082E091B301F091B401D6
:100750008FEC80831092BD01E091B901F091BA0154
:1007600086E08083E091B701F091B80180818061DB
:100770008083E091B701F091B80180818860808327
:10078000E091B701F091B801808180688083E091A9
:10079000B701F091B80180818F7D808389E00E944C
:1007A0008C008BE00E948C0061E089E00E940A02CC
:1007B00020E4F22E88248A9433E0932EA12CB12CCD
:1007C00040E0C42E40E0D42EEE24E3940091A10139
:1007D00010E08CE00E94E1010817190751F08CE04D
:1007E0000E94E101019709F0A9C085E191E00E9412
:1007F0009C028CE00E94E10121E0009709F420E0D6
:100800002093A10161E0892B09F060E08BE00E9458
:100810000A028CE00E94E101892B51F060E089E03E
:100820000E940A026AE070E080E090E00E945D02AF
:10083000F0927C0080917A00806480937A008091AD
:100840007A0086FDFCCF80917800A0917900BA2FC4
:10085000A82F24EF31E00E944805A50194010E94D1
:10086000F804DA01C90180549140A109B1098C0151
:100870009093A4018093A30161E089E00E940A02A1
:100880007090A2018091A101882309F45AC01092AE
:10089000A2018091A201781639F0882309F45DC085
:1008A00089E691E00E949C024090A3015090A4012F
:1008B000052C000C6608770877FE52C06DE285EAC9
:1008C00091E00E944B0122273327A9012419350901
:1008D0004609570919A28E010F5D1F4F9AE0492E54
:1008E000512C612C712CCA01B901A30192010E9403
:1008F0001705605DF80162938F01211531054105EF
:10090000510589F70115110519F0C8010E948F02E0
:1009100086E991E00E949C0268EE73E080E090E03E
:100920000E945D02C114D10409F450CF0E94150148
:10093000882309F44BCF0E94000048CF8DE391E05B
:1009400056CF8AE00E94E101892B19F0E092A201C2
:10095000A0CF0F301105D4F39ACF8EE791E0A2CF4C
:10096000A301920119A28E010F5D1F4F8AE0482E4C
:10097000512C612C712CCA01B901A30192010E9472
:100980001705605DF80162938F012115310541055E
:10099000510589F7B7CFE5EAF1E01382128288EEBC
:1009A00093E0A0E0B0E084839583A683B78384E0DE
:1009B00091E09183808385EC90E09587848784EC37
:1009C00090E09787868780EC90E0918B808B81EC1C
:1009D00090E0938B828B82EC90E0958B848B86ECFD
:1009E00090E0978B868B118E128E138E148E089545
:1009F000052E97FB1EF400940E940F0557FD07D0AB
:100A00000E94170507FC03D04EF40C940F05509577
:100A10004095309521953F4F4F4F5F4F08959095EA
:100A20008095709561957F4F8F4F9F4F0895A1E2FC
:100A30001A2EAA1BBB1BFD010DC0AA1FBB1FEE1F58
:100A4000FF1FA217B307E407F50720F0A21BB30BA3
:100A5000E40BF50B661F771F881F991F1A9469F71F
:100A600060957095809590959B01AC01BD01CF017B
:100A70000895A29FB001B39FC001A39F700D811D77
:100A80001124911DB29F700D811D1124911D089597
:100A90000E943905B7FF0895821B930B0895EE0F4E
:0E0AA000FF1F0590F491E02D0994F894FFCF0C
:100AAE00000000004B01AB00D80098010901E700DF
:100ABE00FB000D0A007365206120636F6E65637421
:100ACE0061646F20756E206361726761646F72205E
:100ADE0061206C61206261746572696100736520CA
:100AEE006120646573636F6E65637461646F206506
:100AFE006C206361726761646F72206465206C6143
:100B0E002062617465726961006D6F646F20616847
:100B1E006F72726F20616374697661646F006D6FBE
:100B2E00646F2061686F72726F20646573616374A5
:080B3E00697661646F00250077
:00000001FF
