:100000000C9462000C948A000C948A000C948A0070
:100010000C948A000C948A000C948A000C948A0038
:100020000C948A000C948A000C948A000C948A0028
:100030000C948A000C948A000C948A000C948A0018
:100040000C94A0020C948A000C946E020C9448024A
:100050000C948A000C948A000C948A000C948A00F8
:100060000C948A000C948A000000000023002600F3
:10007000290000000000240027002A0000000000E2
:10008000250028002B0004040404040404040202D4
:100090000202020203030303030301020408102007
:1000A0004080010204081020010204081020000012
:1000B0000008000201000003040700000000000027
:1000C00000008C0411241FBECFEFD8E0DEBFCDBFEF
:1000D00011E0A0E0B1E0EAEBFBE002C005900D9278
:1000E000A234B107D9F721E0A2E4B1E001C01D922A
:1000F000A03FB207E1F710E0C2E6D0E004C02197CC
:10010000FE010E94D505C136D107C9F70E94EA0257
:100110000C94DB050C940000AF92BF92CF92DF925B
:10012000EF92FF920F931F93CF93DF936C017B01AC
:100130008B01040F151FEB015E01AE18BF08C0173D
:10014000D10759F06991D601ED91FC910190F081B0
:10015000E02DC6010995892B79F7C501DF91CF9173
:100160001F910F91FF90EF90DF90CF90BF90AF90D5
:100170000895FC01538D448D252F30E0842F90E0AD
:10018000821B930B541710F0CF9608950197089592
:10019000FC01918D828D981761F0A28DAE0FBF2F5B
:1001A000B11D5D968C91928D9F5F9F73928F90E0B1
:1001B00008958FEF9FEF0895FC01918D828D981720
:1001C00031F0828DE80FF11D858D90E008958FEF5D
:1001D0009FEF0895FC01918D228D892F90E0805C26
:1001E0009F4F821B91098F739927089583E591E0B2
:1001F0000E94EA0021E0892B09F420E0822F089573
:1002000080E090E0892B29F00E94F60081110C9487
:1002100000000895FC01A48DA80FB92FB11DA35AA9
:10022000BF4F2C91848D90E001968F739927848F16
:10023000A689B7892C93A089B1898C918370806439
:100240008C93938D848D981306C00288F389E02DDA
:1002500080818F7D80830895EF92FF920F931F938B
:10026000CF93DF93EC0181E0888F9B8D8C8D981369
:100270001AC0E889F989808185FF15C09FB7F89475
:10028000EE89FF896083E889F989808183708064C1
:1002900080839FBF81E090E0DF91CF911F910F910C
:1002A000FF90EF900895F62E0B8D10E00F5F1F4F1B
:1002B0000F731127E02E8C8D8E110CC00FB607FC2A
:1002C000FACFE889F989808185FFF5CFCE010E94B8
:1002D0000A01F1CFEB8DEC0FFD2FF11DE35AFF4F1B
:1002E000F0829FB7F8940B8FEA89FB898081806246
:1002F000CFCFCF93DF93EC01888D8823B9F0AA8903
:10030000BB89E889F9898C9185FD03C0808186FDD0
:100310000DC00FB607FCF7CF8C9185FFF2CF80811F
:1003200085FFEDCFCE010E940A01E9CFDF91CF9189
:100330000895833081F028F4813099F08230A9F05B
:1003400008958730A9F08830C9F08430B1F48091E5
:1003500080008F7D03C0809180008F778093800024
:10036000089584B58F7784BD089584B58F7DFBCFC4
:100370008091B0008F778093B00008958091B00095
:100380008F7DF9CF1F93CF93DF93E7EBF0E094914C
:10039000E3EAF0E0D491EFE8F0E0C491CC23B9F0C7
:1003A000182F992319F0892F0E949901EC2FF0E062
:1003B000EE0FFF1FE458FF4FA591B4918FB7F8944B
:1003C000EC91111108C0D095DE23DC938FBFDF9133
:1003D000CF911F910895DE2BF8CFCF93DF93282F75
:1003E00030E0F901E255FF4F8491F901E656FF4FE5
:1003F000D491F901EA57FF4FC491CC23A1F08111A8
:100400000E949901EC2FF0E0EE0FFF1FE859FF4F1B
:10041000A591B491EC91ED2381E090E009F480E0A6
:10042000DF91CF91089580E090E0FACF3FB7F89444
:100430008091470190914801A0914901B0914A01F2
:1004400026B5A89B05C02F3F19F00196A11DB11D2F
:100450003FBFBA2FA92F982F8827BC01CD01620F6B
:10046000711D811D911D42E0660F771F881F991F26
:100470004A95D1F70895FC0101900020E9F73197E2
:10048000AF01481B590BBC0183E591E00C948C0033
:100490001F920F920FB60F9211242F933F934F93F9
:1004A0005F936F937F938F939F93AF93BF93EF93DC
:1004B000FF9383E591E00E940A01FF91EF91BF91C4
:1004C000AF919F918F917F916F915F914F913F91EC
:1004D0002F910F900FBE0F901F9018951F920F92A3
:1004E0000FB60F9211242F938F939F93EF93FF9347
:1004F000E0916301F09164018081E0916901F091E4
:100500006A0182FD1BC0908180916C018F5F8F73A7
:1005100020916D01821741F0E0916C01F0E0ED5AFD
:10052000FE4F958F80936C01FF91EF919F918F917A
:100530002F910F900FBE0F901F9018958081F4CFD0
:100540001F920F920FB60F9211242F933F938F9308
:100550009F93AF93BF938091430190914401A091E9
:100560004501B09146013091420123E0230F2D3720
:1005700058F50196A11DB11D2093420180934301BE
:1005800090934401A0934501B093460180914701A7
:1005900090914801A0914901B0914A010196A11D95
:1005A000B11D8093470190934801A0934901B093F6
:1005B0004A01BF91AF919F918F913F912F910F90E1
:1005C0000FBE0F901F90189526E8230F0296A11DCD
:1005D000B11DD2CFCF93DF93CDB7DEB7A1970FB6C2
:1005E000F894DEBF0FBECDBF789484B5826084BD21
:1005F00084B5816084BD85B5826085BD85B5816027
:1006000085BD80916E00816080936E0010928100A4
:10061000809181008260809381008091810081605F
:100620008093810080918000816080938000809120
:10063000B10084608093B1008091B00081608093AC
:10064000B00080917A00846080937A0080917A0073
:10065000826080937A0080917A00816080937A0032
:1006600080917A00806880937A001092C100E091B6
:100670006301F091640182E08083E0915F01F09179
:1006800060011082E0916101F09162018FEC808342
:1006900010926B01E0916701F091680186E0808320
:1006A000E0916501F0916601808180618083E09135
:1006B0006501F0916601808188608083E091650129
:1006C000F0916601808180688083E0916501F091FE
:1006D000660180818F7D8083E3EAF0E02491EFE87A
:1006E000F0E08491882399F090E0880F991FFC0135
:1006F000EE58FF4FA591B491FC01E458FF4F85914E
:1007000094918FB7F894EC91E22BEC938FBF81E03A
:100710000E94C2019AE0892E912CA12CB12C222496
:100720002394312C8CE00E94ED0190935201809330
:100730005101892B19F080E00E94C20120E420932E
:100740007C0080917A00806480937A0080917A00A6
:1007500086FDFCCF80917800A0917900BA2FA82F58
:1007600024EF31E00E94CE052FEF33E040E050E06F
:100770000E94B904CA01B90160547140810991090C
:100780000E9446056B017C01C0924B01D0924C0146
:10079000E0924D01F0924E0181E00E94C201C7013A
:1007A000B6010E940E056B01770FEE08FF08F7FEF9
:1007B0007FC06DE283E591E00E942C012227332760
:1007C000A9012C193D094E095F0919A28E010F5D7F
:1007D0001F4FCA01B901A50194010E94D804605DB0
:1007E000F80162938F01211531054105510589F703
:1007F0000115110519F0C8010E943B0282E191E048
:100800000E943B0211E080914F0190915001892B91
:1008100009F410E08CE00E94ED01892B09F45EC020
:100820001092500110924F0180914F019091500110
:100830001817190659F0892B09F46BC085E191E06E
:100840000E943B0282E191E00E943B020E9416025C
:100850006B017C0188EE482E83E0582E612C712CB0
:100860000E9416026C197D098E099F09683E73402B
:1008700081059105A8F3F1E04F1A5108610871084C
:1008800028EEC20E23E0D21EE11CF11C41145104DB
:100890006104710429F780E090E0892B09F442CFCC
:1008A0000E94F600882309F43DCF0E9400003ACF51
:1008B000A701960119A28E010F5D1F4FCA01B90150
:1008C000A50194010E94D804605DF80162938F0134
:1008D000211531054105510589F78ACF8AE00E942B
:1008E000ED01892B29F03092500120924F019CCFCD
:1008F00020E030E040E751E460914B0170914C0101
:1009000080914D0190914E010E94090587FDEBCF2A
:1009100087CF8AE291E094CFE3E5F1E0138212827F
:1009200088EE93E0A0E0B0E084839583A683B7834C
:1009300084E091E09183808385EC90E095878487C3
:1009400084EC90E09787868780EC90E0918B808B99
:1009500081EC90E0938B828B82EC90E0958B848B82
:1009600086EC90E0978B868B118E128E138E148EF0
:100970000895052E97FB1EF400940E94D00457FDA5
:1009800007D00E94D80407FC03D04EF40C94D00486
:1009900050954095309521953F4F4F4F5F4F0895AB
:1009A00090958095709561957F4F8F4F9F4F0895DB
:1009B000A1E21A2EAA1BBB1BFD010DC0AA1FBB1F63
:1009C000EE1FFF1FA217B307E407F50720F0A21BD5
:1009D000B30BE40BF50B661F771F881F991F1A9442
:1009E00069F760957095809590959B01AC01BD016C
:1009F000CF010895A29FB001B39FC001A39F700DC6
:100A0000811D1124911DB29F700D811D1124911D16
:100A100008950E94810508F481E008950E9415055B
:100A20006894B1110C94C80508950E94AD0588F032
:100A30009F5798F0B92F9927B751B0F0E1F0660FA2
:100A4000771F881F991F1AF0BA95C9F714C0B130E3
:100A500091F00E94C705B1E008950C94C705672F77
:100A6000782F8827B85F39F0B93FCCF38695779512
:100A70006795B395D9F73EF49095809570956195FB
:100A80007F4F8F4F9F4F0895E89409C097FB3EF426
:100A900090958095709561957F4F8F4F9F4F9923CB
:100AA000A9F0F92F96E9BB279395F6958795779549
:100AB0006795B795F111F8CFFAF4BB0F11F460FF09
:100AC0001BC06F5F7F4F8F4F9F4F16C0882311F061
:100AD00096E911C0772321F09EE8872F762F05C075
:100AE000662371F096E8862F70E060E02AF09A9510
:100AF000660F771F881FDAF7880F9695879597F905
:100B00000895990F0008550FAA0BE0E8FEEF16169E
:100B10001706E807F907C0F012161306E407F507F1
:100B200098F0621B730B840B950B39F40A2661F065
:100B3000232B242B252B21F408950A2609F4A14008
:100B4000A6958FEF811D811D089557FD9058440F84
:100B5000551F59F05F3F71F04795880F97FB991F1C
:100B600061F09F3F79F087950895121613061406D9
:100B7000551FF2CF4695F1DF08C016161706180666
:100B8000991FF1CF86957105610508940895E89441
:100B9000BB2766277727CB0197F908950E94FA04AF
:100BA000B7FF0895821B930B0895EE0FFF1F05906A
:0A0BB000F491E02D0994F894FFCFB2
:100BBA00000000002C018C00B9007901EA00C8008D
:100BCA00DC000D0A006D6F646F2061686F72726FCE
:100BDA0020616374697661646F006D6F646F206170
:100BEA00686F72726F206465736163746976616499
:020BFA006F008A
:00000001FF
